:020000040000FA
:100000000C9462000C948A000C948A000C948A0070
:100010000C948A000C948A000C948A000C948A0038
:100020000C948A000C948A000C948A000C948A0028
:100030000C948A000C948A000C948A000C948A0018
:100040000C94FE010C948A000C946E020C944802ED
:100050000C948A000C948A000C948A000C948A00F8
:100060000C948A000C948A000000000024002700F1
:100070002A000000000023002600290000000000E4
:10008000250028002B0004040404040404040202D4
:100090000202020203030303030301020408102007
:1000A0004080010204081020010204081020000012
:1000B0000008000201000003040700000000000027
:1000C00000009E0411241FBECFEFD8E0DEBFCDBFDD
:1000D00011E0A0E0B1E0E2EDFCE002C005900D927D
:1000E000AC3FB107D9F722E0ACEFB1E001C01D92FF
:1000F000A63AB207E1F710E0C2E6D0E004C02197CB
:10010000FE010E946106C136D107C9F70E94E502CF
:100110000C9467060C940000EAEBF0E02491E6EA08
:10012000F0E09491E2E9F0E0E491EE23C9F02223BB
:1001300039F0233001F1A8F4213019F1223029F1EE
:10014000F0E0EE0FFF1FE458FF4FA591B4912FB7D9
:10015000F894EC91811126C090959E239C932FBF1B
:1001600008952730A9F02830C9F0243049F72091AC
:1001700080002F7D03C0209180002F772093800086
:10018000DFCF24B52F7724BDDBCF24B52F7DFBCF68
:100190002091B0002F772093B000D2CF2091B000F3
:1001A0002F7DF9CF9E2BDACFAF92BF92CF92DF9205
:1001B000EF92FF920F931F93CF93DF936C017B011C
:1001C0008B01040F151FEB015E01AE18BF08C017AD
:1001D000D10759F06991D601ED91FC910190F08120
:1001E000E02DC6010995892B79F7C501DF91CF91E3
:1001F0001F910F91FF90EF90DF90CF90BF90AF9045
:100200000895FC01538D448D252F30E0842F90E01C
:10021000821B930B541710F0CF9608950197089501
:10022000FC01918D828D981761F0A28DAE0FBF2FCA
:10023000B11D5D968C91928D9F5F9F73928F90E020
:1002400008958FEF9FEF0895FC01918D828D98178F
:1002500031F0828DE80FF11D858D90E008958FEFCC
:100260009FEF0895FC01918D228D892F90E0805C95
:100270009F4F821B91098F739927089589E092E01F
:100280000E94320121E0892B09F420E0822F089599
:1002900080E090E0892B29F00E943E0181110C94AE
:1002A00000000895FC01A48DA80FB92FB11DA35A19
:1002B000BF4F2C91848D90E001968F739927848F86
:1002C000A689B7892C93A089B1898C9183708064A9
:1002D0008C93938D848D981306C00288F389E02D4A
:1002E00080818F7D80830895EF92FF920F931F93FB
:1002F000CF93DF93EC0181E0888F9B8D8C8D9813D9
:100300001AC0E889F989808185FF15C09FB7F894E4
:10031000EE89FF896083E889F98980818370806430
:1003200080839FBF81E090E0DF91CF911F910F917B
:10033000FF90EF900895F62E0B8D10E00F5F1F4F8A
:100340000F731127E02E8C8D8E110CC00FB607FC99
:10035000FACFE889F989808185FFF5CFCE010E9427
:100360005201F1CFEB8DEC0FFD2FF11DE35AFF4F42
:10037000F0829FB7F8940B8FEA89FB8980818062B5
:10038000CFCFCF93DF93EC01888D8823B9F0AA8972
:10039000BB89E889F9898C9185FD03C0808186FD40
:1003A0000DC00FB607FCF7CF8C9185FFF2CF80818F
:1003B00085FFEDCFCE010E945201E9CFDF91CF91B1
:1003C0000895CF93DF93FC0101900020E9F7319766
:1003D000AF01481B590BBC0189E092E00E94D40098
:1003E000EC0142E050E066E171E089E092E00E94B9
:1003F000D4008C0F9D1FDF91CF9108951F920F9213
:100400000FB60F9211242F933F938F939F93AF9327
:10041000BF938091050290910602A0910702B091CE
:1004200008023091040223E0230F2D3758F501967E
:10043000A11DB11D20930402809305029093060232
:10044000A0930702B09308028091000290910102EC
:10045000A0910202B09103020196A11DB11D8093EB
:10046000000290930102A0930202B0930302BF9195
:10047000AF919F918F913F912F910F900FBE0F9051
:100480001F90189526E8230F0296A11DB11DD2CF0B
:100490001F920F920FB60F9211242F933F934F93F9
:1004A0005F936F937F938F939F93AF93BF93EF93DC
:1004B000FF9389E092E00E945201FF91EF91BF917A
:1004C000AF919F918F917F916F915F914F913F91EC
:1004D0002F910F900FBE0F901F9018951F920F92A3
:1004E0000FB60F9211242F938F939F93EF93FF9347
:1004F000E0911902F0911A028081E0911F02F091BF
:10050000200282FD1BC09081809122028F5F8F7339
:1005100020912302821741F0E0912202F0E0E75F90
:10052000FD4F958F80932202FF91EF919F918F91C4
:100530002F910F900FBE0F901F9018958081F4CFD0
:10054000CF92DF92EF92FF920F931F93E82FF92F34
:1005500005C0015011092109310961F190819623EB
:100560009417B9F305C0015011092109310911F19E
:10057000908196239413F7CFC12CD12CE12CF12C30
:100580000AC08FEFC81AD80AE80AF80A0C151D0528
:100590002E053F0579F080818623841791F36C2D19
:1005A0007D2D8E2D9F2D1F910F91FF90EF90DF904D
:1005B000CF90089560E070E080E090E01F910F918F
:1005C000FF90EF90DF90CF900895789484B582608B
:1005D00084BD84B5816084BD85B5826085BD85B5E7
:1005E000816085BD80916E00816080936E00109265
:1005F00081008091810082608093810080918100E0
:100600008160809381008091800081608093800070
:100610008091B10084608093B1008091B0008160CE
:100620008093B00080917A00846080937A008091FA
:100630007A00826080937A0080917A008160809352
:100640007A0080917A00806880937A001092C100CD
:10065000E0911902F0911A0282E08083E091150284
:10066000F09116021082E0911702F09118028FECBF
:10067000808310922102E0911D02F0911E0286E01B
:100680008083E0911B02F0911C0280818061808355
:10069000E0911B02F0911C02808188608083E091D0
:1006A0001B02F0911C02808180688083E0911B0214
:1006B000F0911C0280818F7D8083E6EAF0E0249136
:1006C000E2E9F0E08491882399F090E0880F991F87
:1006D000FC01E859FF4FA591B491FC01E458FF4F8C
:1006E000859194918FB7F894EC91E22BEC938FBFA6
:1006F000E7EAF0E0249143E9242E40E0342EF101B2
:1007000084918823C1F090E0880F991FFC01E8597B
:10071000FF4FA591B491FC01E458FF4FC591D491CE
:100720003FB7F8949C91822F809598239C93988151
:10073000892388833FBF89E191E00E94E10182E43F
:1007400091E00E94E10185E691E00E94E10189E1EA
:1007500091E00E94E101C3E0D0E093E2A92EB12C28
:1007600020E0822E20E0922E80E00E948C00CE01BC
:100770000197F1F781E00E948C00C5010197F1F724
:1007800080E00E948C00E7EAF0E06491F10184913E
:10079000E82FF0E0EE0FFF1FEE58FF4F8591949188
:1007A00000E315E720E030E0462F0E94A00261152B
:1007B00071058105910509F4B5C06F5F7F4F8F4FBB
:1007C0009F4F9F70611571058105910509F4AAC0BD
:1007D0000E943F0528E23EE74CE05DE30E94F405FD
:1007E00020E030E040E05FE30E94F4056B017C0113
:1007F00020E030E040E251E40E94EF0518160CF0D2
:1008000080C020E030E048EC52E4C701B6010E940D
:10081000380518160CF475C0409000015090010185
:10082000609002017090030120E030E0A901C30153
:10083000B2010E94380587FD1AC0A3019201C701C9
:10084000B6010E94CB042B013C0120E030E0A9015D
:100850000E94EF0511E0181664F420E030E048E44F
:1008600052E4C301B2010E94EF0587FF0CC010E003
:100870000AC020E030E048E452ECC301B2010E941B
:1008800038051816A4F38FB7F894409005025090DD
:10089000060260900702709008028FBF112389F151
:1008A0008091FC019091FD01A091FE01B091FF01AA
:1008B000A3019201281B390B4A0B5B0BDA01C9011A
:1008C00088389341A105B105E0F08BE891E00E94E2
:1008D000E10184EB91E00E94E10185E691E00E9454
:1008E000E1018BE891E00E94E10187ED91E00E9437
:1008F000E1014092FC015092FD016092FE01709274
:10090000FF0120E030E0A901C701B6010E94EF0518
:10091000181644F4C0920001D0920101E092020145
:10092000F09203018114910409F41ECF0E943E014C
:10093000882309F419CF0E94000016CFE9E0F2E005
:100940001382128288EE93E0A0E0B0E08483958366
:10095000A683B78388E091E09183808385EC90E063
:100960009587848784EC90E09787868780EC90E079
:10097000918B808B81EC90E0938B828B82EC90E06A
:10098000958B848B86EC90E0978B868B118E128EE4
:10099000138E148E08955058BB27AA270E94E30493
:1009A0000C94B5050E94A70538F00E94AE0520F012
:1009B00039F49F3F19F426F40C94A4050EF4E09545
:1009C000E7FB0C949E05E92F0E94C60558F3BA1761
:1009D000620773078407950720F079F4A6F50C9455
:1009E000E8050EF4E0950B2EBA2FA02D0B01B901EE
:1009F00090010C01CA01A0011124FF27591B99F095
:100A0000593F50F4503E68F11A16F040A22F232FA0
:100A1000342F4427585FF3CF469537952795A795F0
:100A2000F0405395C9F77EF41F16BA0B620B730B97
:100A3000840BBAF09150A1F0FF0FBB1F661F771F08
:100A4000881FC2F70EC0BA0F621F731F841F48F4BD
:100A5000879577956795B795F7959E3F08F0B0CF46
:100A60009395880F08F09927EE0F9795879508952D
:100A70000E947A0508F481E00895E89409C097FB84
:100A80003EF490958095709561957F4F8F4F9F4F65
:100A90009923A9F0F92F96E9BB279395F6958795A9
:100AA00077956795B795F111F8CFFAF4BB0F11F46C
:100AB00060FF1BC06F5F7F4F8F4F9F4F16C0882313
:100AC00011F096E911C0772321F09EE8872F762F49
:100AD00005C0662371F096E8862F70E060E02AF08A
:100AE0009A95660F771F881FDAF7880F9695879576
:100AF00097F90895990F0008550FAA0BE0E8FEEF4B
:100B000016161706E807F907C0F012161306E407D1
:100B1000F50798F0621B730B840B950B39F40A26CA
:100B200061F0232B242B252B21F408950A2609F4A8
:100B3000A140A6958FEF811D811D089597F99F67AC
:100B400080E870E060E008959FEF80EC0895002455
:100B50000A941616170618060906089500240A9422
:100B600012161306140605060895092E0394000CA8
:100B700011F4882352F0BB0F40F4BF2B11F460FF37
:100B800004C06F5F7F4F8F4F9F4F089557FD905860
:100B9000440F551F59F05F3F71F04795880F97FB41
:100BA000991F61F09F3F79F08795089512161306FB
:100BB0001406551FF2CF4695F1DF08C0161617062A
:100BC0001806991FF1CF869571056105089408955F
:100BD000E894BB2766277727CB0197F908950E94F1
:100BE0007A0508F48FEF08950E9407060C94B50566
:100BF0000E94A70538F00E94AE0520F0952311F061
:100C00000C949E050C94A40511240C94E9050E94F3
:100C1000C60570F3959FC1F3950F50E0551F629F75
:100C2000F001729FBB27F00DB11D639FAA27F00D45
:100C3000B11DAA1F649F6627B00DA11D661F829F6C
:100C40002227B00DA11D621F739FB00DA11D621F51
:100C5000839FA00D611D221F749F3327A00D611D6E
:100C6000231F849F600D211D822F762F6A2F112450
:100C70009F5750409AF0F1F088234AF0EE0FFF1F83
:100C8000BB1F661F771F881F91505040A9F79E3FDA
:100C9000510580F00C949E050C94E9055F3FE4F348
:100CA000983ED4F3869577956795B795F795E79530
:100CB0009F5FC1F7FE2B880F911D9695879597F939
:100CC0000895EE0FFF1F0590F491E02D0994F8941C
:100CD000FFCF000080BF000000007401D4000101BC
:100CE000C1013201100124010D0A003D3D3D3D3D91
:100CF0003D3D3D3D3D3D3D3D3D3D3D3D3D3D3D3D24
:100D00003D3D3D3D3D3D3D3D3D3D3D3D3D3D3D3D13
:100D10003D3D3D002020496F5420446F6F722047B5
:100D200072656574696E6720446576696365202D18
:100D300020526561647900202057656C636F6D6592
:100D400020746F2074686520436F6D7075746572D0
:100D5000204C61626F7261746F727921002D2D2DAC
:100D60002D2D2D2D2D2D2D2D2D2D2D2D2D2D2D2DB3
:100D70002D2D2D2D2D2D2D2D2D2D2D2D2D2D2D2DA3
:100D80002D2D2D2D2D002020506572736F6E206447
:100D9000657465637465642061742074686520659A
:100DA0006E7472616E6365210020205B4175646919
:100DB0006F5D20506C6179696E672067726565743C
:0E0DC000696E6720617564696F2E2E2E00002B
:107E0000112484B714BE81FFF0D085E080938100F7
:107E100082E08093C00088E18093C10086E0809377
:107E2000C20080E18093C4008EE0C9D0259A86E02C
:107E300020E33CEF91E0309385002093840096BBD3
:107E4000B09BFECF1D9AA8958150A9F7CC24DD24C4
:107E500088248394B5E0AB2EA1E19A2EF3E0BF2EE7
:107E6000A2D0813461F49FD0082FAFD0023811F036
:107E7000013811F484E001C083E08DD089C08234E0
:107E800011F484E103C0853419F485E0A6D080C0E4
:107E9000853579F488D0E82EFF2485D0082F10E0AE
:107EA000102F00270E291F29000F111F8ED06801E7
:107EB0006FC0863521F484E090D080E0DECF843638
:107EC00009F040C070D06FD0082F6DD080E0C81688
:107ED00080E7D80618F4F601B7BEE895C0E0D1E017
:107EE00062D089930C17E1F7F0E0CF16F0E7DF06D8
:107EF00018F0F601B7BEE89568D007B600FCFDCFD4
:107F0000A601A0E0B1E02C9130E011968C91119780
:107F100090E0982F8827822B932B1296FA010C0160
:107F200087BEE89511244E5F5F4FF1E0A038BF0790
:107F300051F7F601A7BEE89507B600FCFDCF97BE46
:107F4000E89526C08437B1F42ED02DD0F82E2BD052
:107F50003CD0F601EF2C8F010F5F1F4F84911BD097
:107F6000EA94F801C1F70894C11CD11CFA94CF0C13
:107F7000D11C0EC0853739F428D08EE10CD085E9AC
:107F80000AD08FE07ACF813511F488E018D01DD067
:107F900080E101D065CF982F8091C00085FFFCCF94
:107FA0009093C60008958091C00087FFFCCF809118
:107FB000C00084FD01C0A8958091C6000895E0E648
:107FC000F0E098E1908380830895EDDF803219F02E
:107FD00088E0F5DFFFCF84E1DECF1F93182FE3DFCA
:107FE0001150E9F7F2DF1F91089580E0E8DFEE27F6
:047FF000FF270994CA
:027FFE00040479
:00000001FF
